{
  "_format": "hh-sol-artifact-1",
  "contractName": "AITradingPlatform",
  "sourceName": "contracts/AITradingPlatform.sol",
  "abi": [
    {
      "inputs": [],
      "stateMutability": "nonpayable",
      "type": "constructor"
    },
    {
      "anonymous": false,
      "inputs": [
        {
          "indexed": true,
          "internalType": "address",
          "name": "agent",
          "type": "address"
        },
        {
          "indexed": false,
          "internalType": "string",
          "name": "name",
          "type": "string"
        }
      ],
      "name": "AIAgentRegistered",
      "type": "event"
    },
    {
      "anonymous": false,
      "inputs": [
        {
          "indexed": true,
          "internalType": "address",
          "name": "agent",
          "type": "address"
        },
        {
          "indexed": false,
          "internalType": "uint256",
          "name": "successRate",
          "type": "uint256"
        }
      ],
      "name": "AIAgentUpdated",
      "type": "event"
    },
    {
      "anonymous": false,
      "inputs": [
        {
          "indexed": true,
          "internalType": "address",
          "name": "token",
          "type": "address"
        },
        {
          "indexed": true,
          "internalType": "address",
          "name": "feed",
          "type": "address"
        }
      ],
      "name": "ChainlinkFeedSet",
      "type": "event"
    },
    {
      "anonymous": false,
      "inputs": [
        {
          "indexed": true,
          "internalType": "address",
          "name": "user",
          "type": "address"
        },
        {
          "indexed": true,
          "internalType": "address",
          "name": "token",
          "type": "address"
        },
        {
          "indexed": false,
          "internalType": "uint256",
          "name": "amount",
          "type": "uint256"
        }
      ],
      "name": "Deposit",
      "type": "event"
    },
    {
      "anonymous": false,
      "inputs": [
        {
          "indexed": false,
          "internalType": "uint256",
          "name": "newFee",
          "type": "uint256"
        }
      ],
      "name": "FeeUpdated",
      "type": "event"
    },
    {
      "anonymous": false,
      "inputs": [
        {
          "indexed": true,
          "internalType": "address",
          "name": "updater",
          "type": "address"
        }
      ],
      "name": "OracleUpdaterSet",
      "type": "event"
    },
    {
      "anonymous": false,
      "inputs": [
        {
          "indexed": true,
          "internalType": "address",
          "name": "previousOwner",
          "type": "address"
        },
        {
          "indexed": true,
          "internalType": "address",
          "name": "newOwner",
          "type": "address"
        }
      ],
      "name": "OwnershipTransferred",
      "type": "event"
    },
    {
      "anonymous": false,
      "inputs": [
        {
          "indexed": false,
          "internalType": "address",
          "name": "account",
          "type": "address"
        }
      ],
      "name": "Paused",
      "type": "event"
    },
    {
      "anonymous": false,
      "inputs": [
        {
          "indexed": false,
          "internalType": "address[]",
          "name": "tokens",
          "type": "address[]"
        },
        {
          "indexed": false,
          "internalType": "uint256[]",
          "name": "prices",
          "type": "uint256[]"
        },
        {
          "indexed": false,
          "internalType": "uint256",
          "name": "timestamp",
          "type": "uint256"
        }
      ],
      "name": "PriceBatchUpdated",
      "type": "event"
    },
    {
      "anonymous": false,
      "inputs": [
        {
          "indexed": true,
          "internalType": "address",
          "name": "token",
          "type": "address"
        },
        {
          "indexed": false,
          "internalType": "uint256",
          "name": "price",
          "type": "uint256"
        },
        {
          "indexed": false,
          "internalType": "uint256",
          "name": "timestamp",
          "type": "uint256"
        }
      ],
      "name": "PriceUpdated",
      "type": "event"
    },
    {
      "anonymous": false,
      "inputs": [
        {
          "indexed": true,
          "internalType": "address",
          "name": "token",
          "type": "address"
        }
      ],
      "name": "TokenAdded",
      "type": "event"
    },
    {
      "anonymous": false,
      "inputs": [
        {
          "indexed": true,
          "internalType": "address",
          "name": "token",
          "type": "address"
        }
      ],
      "name": "TokenRemoved",
      "type": "event"
    },
    {
      "anonymous": false,
      "inputs": [
        {
          "indexed": true,
          "internalType": "uint256",
          "name": "tradeId",
          "type": "uint256"
        },
        {
          "indexed": true,
          "internalType": "address",
          "name": "user",
          "type": "address"
        },
        {
          "indexed": true,
          "internalType": "address",
          "name": "agent",
          "type": "address"
        },
        {
          "indexed": false,
          "internalType": "address",
          "name": "tokenIn",
          "type": "address"
        },
        {
          "indexed": false,
          "internalType": "address",
          "name": "tokenOut",
          "type": "address"
        },
        {
          "indexed": false,
          "internalType": "uint256",
          "name": "amountIn",
          "type": "uint256"
        },
        {
          "indexed": false,
          "internalType": "uint256",
          "name": "amountOut",
          "type": "uint256"
        }
      ],
      "name": "TradeExecuted",
      "type": "event"
    },
    {
      "anonymous": false,
      "inputs": [
        {
          "indexed": false,
          "internalType": "address",
          "name": "account",
          "type": "address"
        }
      ],
      "name": "Unpaused",
      "type": "event"
    },
    {
      "anonymous": false,
      "inputs": [
        {
          "indexed": true,
          "internalType": "address",
          "name": "user",
          "type": "address"
        },
        {
          "indexed": false,
          "internalType": "uint256",
          "name": "timestamp",
          "type": "uint256"
        }
      ],
      "name": "UserRegistered",
      "type": "event"
    },
    {
      "anonymous": false,
      "inputs": [
        {
          "indexed": true,
          "internalType": "address",
          "name": "user",
          "type": "address"
        },
        {
          "indexed": true,
          "internalType": "address",
          "name": "token",
          "type": "address"
        },
        {
          "indexed": false,
          "internalType": "uint256",
          "name": "amount",
          "type": "uint256"
        }
      ],
      "name": "Withdrawal",
      "type": "event"
    },
    {
      "inputs": [],
      "name": "MAX_FEE",
      "outputs": [
        {
          "internalType": "uint256",
          "name": "",
          "type": "uint256"
        }
      ],
      "stateMutability": "view",
      "type": "function"
    },
    {
      "inputs": [],
      "name": "PRICE_DECIMALS",
      "outputs": [
        {
          "internalType": "uint8",
          "name": "",
          "type": "uint8"
        }
      ],
      "stateMutability": "view",
      "type": "function"
    },
    {
      "inputs": [
        {
          "internalType": "uint256",
          "name": "",
          "type": "uint256"
        }
      ],
      "name": "activeAgents",
      "outputs": [
        {
          "internalType": "address",
          "name": "",
          "type": "address"
        }
      ],
      "stateMutability": "view",
      "type": "function"
    },
    {
      "inputs": [
        {
          "internalType": "address",
          "name": "token",
          "type": "address"
        }
      ],
      "name": "addSupportedToken",
      "outputs": [],
      "stateMutability": "nonpayable",
      "type": "function"
    },
    {
      "inputs": [
        {
          "internalType": "address",
          "name": "",
          "type": "address"
        }
      ],
      "name": "aiAgents",
      "outputs": [
        {
          "internalType": "address",
          "name": "agentAddress",
          "type": "address"
        },
        {
          "internalType": "string",
          "name": "name",
          "type": "string"
        },
        {
          "internalType": "uint256",
          "name": "successRate",
          "type": "uint256"
        },
        {
          "internalType": "uint256",
          "name": "totalTrades",
          "type": "uint256"
        },
        {
          "internalType": "uint256",
          "name": "successfulTrades",
          "type": "uint256"
        },
        {
          "internalType": "bool",
          "name": "isActive",
          "type": "bool"
        }
      ],
      "stateMutability": "view",
      "type": "function"
    },
    {
      "inputs": [
        {
          "internalType": "address",
          "name": "",
          "type": "address"
        }
      ],
      "name": "chainlinkFeeds",
      "outputs": [
        {
          "internalType": "address",
          "name": "",
          "type": "address"
        }
      ],
      "stateMutability": "view",
      "type": "function"
    },
    {
      "inputs": [],
      "name": "depositETH",
      "outputs": [],
      "stateMutability": "payable",
      "type": "function"
    },
    {
      "inputs": [
        {
          "internalType": "address",
          "name": "token",
          "type": "address"
        },
        {
          "internalType": "uint256",
          "name": "amount",
          "type": "uint256"
        }
      ],
      "name": "depositToken",
      "outputs": [],
      "stateMutability": "nonpayable",
      "type": "function"
    },
    {
      "inputs": [
        {
          "internalType": "address",
          "name": "token",
          "type": "address"
        },
        {
          "internalType": "uint256",
          "name": "amount",
          "type": "uint256"
        }
      ],
      "name": "emergencyWithdraw",
      "outputs": [],
      "stateMutability": "nonpayable",
      "type": "function"
    },
    {
      "inputs": [
        {
          "internalType": "address",
          "name": "user",
          "type": "address"
        },
        {
          "internalType": "address",
          "name": "tokenIn",
          "type": "address"
        },
        {
          "internalType": "address",
          "name": "tokenOut",
          "type": "address"
        },
        {
          "internalType": "uint256",
          "name": "amountIn",
          "type": "uint256"
        },
        {
          "internalType": "uint256",
          "name": "expectedAmountOut",
          "type": "uint256"
        },
        {
          "internalType": "string",
          "name": "agentSignature",
          "type": "string"
        }
      ],
      "name": "executeTrade",
      "outputs": [],
      "stateMutability": "nonpayable",
      "type": "function"
    },
    {
      "inputs": [
        {
          "internalType": "address",
          "name": "agent",
          "type": "address"
        }
      ],
      "name": "getAIAgentInfo",
      "outputs": [
        {
          "components": [
            {
              "internalType": "address",
              "name": "agentAddress",
              "type": "address"
            },
            {
              "internalType": "string",
              "name": "name",
              "type": "string"
            },
            {
              "internalType": "uint256",
              "name": "successRate",
              "type": "uint256"
            },
            {
              "internalType": "uint256",
              "name": "totalTrades",
              "type": "uint256"
            },
            {
              "internalType": "uint256",
              "name": "successfulTrades",
              "type": "uint256"
            },
            {
              "internalType": "bool",
              "name": "isActive",
              "type": "bool"
            }
          ],
          "internalType": "struct AITradingPlatform.AIAgent",
          "name": "",
          "type": "tuple"
        }
      ],
      "stateMutability": "view",
      "type": "function"
    },
    {
      "inputs": [
        {
          "internalType": "address",
          "name": "token",
          "type": "address"
        }
      ],
      "name": "getLatestPrice",
      "outputs": [
        {
          "internalType": "uint256",
          "name": "",
          "type": "uint256"
        }
      ],
      "stateMutability": "view",
      "type": "function"
    },
    {
      "inputs": [],
      "name": "getSupportedTokens",
      "outputs": [
        {
          "internalType": "address[]",
          "name": "",
          "type": "address[]"
        }
      ],
      "stateMutability": "view",
      "type": "function"
    },
    {
      "inputs": [],
      "name": "getTotalAgents",
      "outputs": [
        {
          "internalType": "uint256",
          "name": "",
          "type": "uint256"
        }
      ],
      "stateMutability": "view",
      "type": "function"
    },
    {
      "inputs": [],
      "name": "getTotalUsers",
      "outputs": [
        {
          "internalType": "uint256",
          "name": "",
          "type": "uint256"
        }
      ],
      "stateMutability": "view",
      "type": "function"
    },
    {
      "inputs": [
        {
          "internalType": "uint256",
          "name": "tradeId",
          "type": "uint256"
        }
      ],
      "name": "getTrade",
      "outputs": [
        {
          "components": [
            {
              "internalType": "uint256",
              "name": "id",
              "type": "uint256"
            },
            {
              "internalType": "address",
              "name": "user",
              "type": "address"
            },
            {
              "internalType": "address",
              "name": "tokenIn",
              "type": "address"
            },
            {
              "internalType": "address",
              "name": "tokenOut",
              "type": "address"
            },
            {
              "internalType": "uint256",
              "name": "amountIn",
              "type": "uint256"
            },
            {
              "internalType": "uint256",
              "name": "amountOut",
              "type": "uint256"
            },
            {
              "internalType": "uint256",
              "name": "timestamp",
              "type": "uint256"
            },
            {
              "internalType": "bool",
              "name": "isCompleted",
              "type": "bool"
            },
            {
              "internalType": "string",
              "name": "agentSignature",
              "type": "string"
            }
          ],
          "internalType": "struct AITradingPlatform.Trade",
          "name": "",
          "type": "tuple"
        }
      ],
      "stateMutability": "view",
      "type": "function"
    },
    {
      "inputs": [
        {
          "internalType": "address",
          "name": "user",
          "type": "address"
        },
        {
          "internalType": "address",
          "name": "token",
          "type": "address"
        }
      ],
      "name": "getUserBalance",
      "outputs": [
        {
          "internalType": "uint256",
          "name": "",
          "type": "uint256"
        }
      ],
      "stateMutability": "view",
      "type": "function"
    },
    {
      "inputs": [
        {
          "internalType": "address",
          "name": "user",
          "type": "address"
        }
      ],
      "name": "getUserInfo",
      "outputs": [
        {
          "components": [
            {
              "internalType": "bool",
              "name": "isRegistered",
              "type": "bool"
            },
            {
              "internalType": "uint256",
              "name": "totalDeposited",
              "type": "uint256"
            },
            {
              "internalType": "uint256",
              "name": "totalWithdrawn",
              "type": "uint256"
            },
            {
              "internalType": "uint256",
              "name": "balance",
              "type": "uint256"
            },
            {
              "internalType": "uint256",
              "name": "lastActivity",
              "type": "uint256"
            },
            {
              "internalType": "bool",
              "name": "isActive",
              "type": "bool"
            }
          ],
          "internalType": "struct AITradingPlatform.User",
          "name": "",
          "type": "tuple"
        }
      ],
      "stateMutability": "view",
      "type": "function"
    },
    {
      "inputs": [],
      "name": "nextTradeId",
      "outputs": [
        {
          "internalType": "uint256",
          "name": "",
          "type": "uint256"
        }
      ],
      "stateMutability": "view",
      "type": "function"
    },
    {
      "inputs": [],
      "name": "oracleUpdater",
      "outputs": [
        {
          "internalType": "address",
          "name": "",
          "type": "address"
        }
      ],
      "stateMutability": "view",
      "type": "function"
    },
    {
      "inputs": [],
      "name": "owner",
      "outputs": [
        {
          "internalType": "address",
          "name": "",
          "type": "address"
        }
      ],
      "stateMutability": "view",
      "type": "function"
    },
    {
      "inputs": [],
      "name": "pause",
      "outputs": [],
      "stateMutability": "nonpayable",
      "type": "function"
    },
    {
      "inputs": [],
      "name": "paused",
      "outputs": [
        {
          "internalType": "bool",
          "name": "",
          "type": "bool"
        }
      ],
      "stateMutability": "view",
      "type": "function"
    },
    {
      "inputs": [],
      "name": "platformFee",
      "outputs": [
        {
          "internalType": "uint256",
          "name": "",
          "type": "uint256"
        }
      ],
      "stateMutability": "view",
      "type": "function"
    },
    {
      "inputs": [
        {
          "internalType": "string",
          "name": "name",
          "type": "string"
        }
      ],
      "name": "registerAIAgent",
      "outputs": [],
      "stateMutability": "nonpayable",
      "type": "function"
    },
    {
      "inputs": [],
      "name": "registerUser",
      "outputs": [],
      "stateMutability": "nonpayable",
      "type": "function"
    },
    {
      "inputs": [
        {
          "internalType": "uint256",
          "name": "",
          "type": "uint256"
        }
      ],
      "name": "registeredUsers",
      "outputs": [
        {
          "internalType": "address",
          "name": "",
          "type": "address"
        }
      ],
      "stateMutability": "view",
      "type": "function"
    },
    {
      "inputs": [
        {
          "internalType": "address",
          "name": "token",
          "type": "address"
        }
      ],
      "name": "removeSupportedToken",
      "outputs": [],
      "stateMutability": "nonpayable",
      "type": "function"
    },
    {
      "inputs": [],
      "name": "renounceOwnership",
      "outputs": [],
      "stateMutability": "nonpayable",
      "type": "function"
    },
    {
      "inputs": [
        {
          "internalType": "address",
          "name": "token",
          "type": "address"
        },
        {
          "internalType": "address",
          "name": "feed",
          "type": "address"
        }
      ],
      "name": "setChainlinkFeed",
      "outputs": [],
      "stateMutability": "nonpayable",
      "type": "function"
    },
    {
      "inputs": [
        {
          "internalType": "address",
          "name": "updater",
          "type": "address"
        }
      ],
      "name": "setOracleUpdater",
      "outputs": [],
      "stateMutability": "nonpayable",
      "type": "function"
    },
    {
      "inputs": [
        {
          "internalType": "address",
          "name": "",
          "type": "address"
        }
      ],
      "name": "storedPriceUSD",
      "outputs": [
        {
          "internalType": "uint256",
          "name": "",
          "type": "uint256"
        }
      ],
      "stateMutability": "view",
      "type": "function"
    },
    {
      "inputs": [
        {
          "internalType": "address",
          "name": "",
          "type": "address"
        }
      ],
      "name": "supportedTokens",
      "outputs": [
        {
          "internalType": "bool",
          "name": "",
          "type": "bool"
        }
      ],
      "stateMutability": "view",
      "type": "function"
    },
    {
      "inputs": [
        {
          "internalType": "address",
          "name": "token",
          "type": "address"
        },
        {
          "internalType": "uint256",
          "name": "tokenAmount",
          "type": "uint256"
        },
        {
          "internalType": "uint8",
          "name": "tokenDecimals",
          "type": "uint8"
        }
      ],
      "name": "tokenAmountToUsd",
      "outputs": [
        {
          "internalType": "uint256",
          "name": "",
          "type": "uint256"
        }
      ],
      "stateMutability": "view",
      "type": "function"
    },
    {
      "inputs": [
        {
          "internalType": "uint256",
          "name": "",
          "type": "uint256"
        }
      ],
      "name": "tokenList",
      "outputs": [
        {
          "internalType": "address",
          "name": "",
          "type": "address"
        }
      ],
      "stateMutability": "view",
      "type": "function"
    },
    {
      "inputs": [
        {
          "internalType": "uint256",
          "name": "",
          "type": "uint256"
        }
      ],
      "name": "trades",
      "outputs": [
        {
          "internalType": "uint256",
          "name": "id",
          "type": "uint256"
        },
        {
          "internalType": "address",
          "name": "user",
          "type": "address"
        },
        {
          "internalType": "address",
          "name": "tokenIn",
          "type": "address"
        },
        {
          "internalType": "address",
          "name": "tokenOut",
          "type": "address"
        },
        {
          "internalType": "uint256",
          "name": "amountIn",
          "type": "uint256"
        },
        {
          "internalType": "uint256",
          "name": "amountOut",
          "type": "uint256"
        },
        {
          "internalType": "uint256",
          "name": "timestamp",
          "type": "uint256"
        },
        {
          "internalType": "bool",
          "name": "isCompleted",
          "type": "bool"
        },
        {
          "internalType": "string",
          "name": "agentSignature",
          "type": "string"
        }
      ],
      "stateMutability": "view",
      "type": "function"
    },
    {
      "inputs": [
        {
          "internalType": "address",
          "name": "newOwner",
          "type": "address"
        }
      ],
      "name": "transferOwnership",
      "outputs": [],
      "stateMutability": "nonpayable",
      "type": "function"
    },
    {
      "inputs": [],
      "name": "unpause",
      "outputs": [],
      "stateMutability": "nonpayable",
      "type": "function"
    },
    {
      "inputs": [
        {
          "internalType": "uint256",
          "name": "newFee",
          "type": "uint256"
        }
      ],
      "name": "updatePlatformFee",
      "outputs": [],
      "stateMutability": "nonpayable",
      "type": "function"
    },
    {
      "inputs": [
        {
          "internalType": "address",
          "name": "token",
          "type": "address"
        },
        {
          "internalType": "uint256",
          "name": "price",
          "type": "uint256"
        }
      ],
      "name": "updatePrice",
      "outputs": [],
      "stateMutability": "nonpayable",
      "type": "function"
    },
    {
      "inputs": [
        {
          "internalType": "address[]",
          "name": "tokens",
          "type": "address[]"
        },
        {
          "internalType": "uint256[]",
          "name": "prices",
          "type": "uint256[]"
        }
      ],
      "name": "updatePriceBatch",
      "outputs": [],
      "stateMutability": "nonpayable",
      "type": "function"
    },
    {
      "inputs": [
        {
          "internalType": "address",
          "name": "",
          "type": "address"
        },
        {
          "internalType": "address",
          "name": "",
          "type": "address"
        }
      ],
      "name": "userTokenBalances",
      "outputs": [
        {
          "internalType": "uint256",
          "name": "",
          "type": "uint256"
        }
      ],
      "stateMutability": "view",
      "type": "function"
    },
    {
      "inputs": [
        {
          "internalType": "address",
          "name": "",
          "type": "address"
        }
      ],
      "name": "users",
      "outputs": [
        {
          "internalType": "bool",
          "name": "isRegistered",
          "type": "bool"
        },
        {
          "internalType": "uint256",
          "name": "totalDeposited",
          "type": "uint256"
        },
        {
          "internalType": "uint256",
          "name": "totalWithdrawn",
          "type": "uint256"
        },
        {
          "internalType": "uint256",
          "name": "balance",
          "type": "uint256"
        },
        {
          "internalType": "uint256",
          "name": "lastActivity",
          "type": "uint256"
        },
        {
          "internalType": "bool",
          "name": "isActive",
          "type": "bool"
        }
      ],
      "stateMutability": "view",
      "type": "function"
    },
    {
      "inputs": [
        {
          "internalType": "uint256",
          "name": "amount",
          "type": "uint256"
        }
      ],
      "name": "withdrawETH",
      "outputs": [],
      "stateMutability": "nonpayable",
      "type": "function"
    },
    {
      "inputs": [
        {
          "internalType": "address",
          "name": "token",
          "type": "address"
        },
        {
          "internalType": "uint256",
          "name": "amount",
          "type": "uint256"
        }
      ],
      "name": "withdrawToken",
      "outputs": [],
      "stateMutability": "nonpayable",
      "type": "function"
    },
    {
      "stateMutability": "payable",
      "type": "receive"
    }
  ],
  "bytecode": "0x6080604052600160085560646009553480156200001b57600080fd5b5060016000556200002c33620000ab565b6001805460ff60a01b19168155600a6020527f13da86008ba1c6922daee3e07db95305ef49ebced9f5467a0b8613fcc6b343e3805460ff191682179055600b805491820181556000527f0175b7a638427703f0dbe7bb9bbf987a2551717b34e79f33b5b1008d1fa01db90180546001600160a01b0319169055620000fd565b600180546001600160a01b038381166001600160a01b0319831681179093556040519116919082907f8be0079c531659141344cd1fd0a4f28419497f9722a3daafe3b4186f6b6457e090600090a35050565b613914806200010d6000396000f3fe6080604052600436106102765760003560e01c8063805d64a01161014f578063b6b640dc116100c1578063eb627e421161007a578063eb627e4214610871578063f14210a61461089e578063f1a640f8146108be578063f2fde38b146108e5578063f4bd2c2e14610905578063f6326fb31461092557600080fd5b8063b6b640dc146107a3578063baf6fe99146107c3578063bc063e1a146107e3578063cec5afe7146107f9578063d3c7c2c714610819578063e8c165001461083b57600080fd5b80639be572f6116101135780639be572f6146106865780639e281a981461069b5780639ead7222146106bb5780639fa2d95e146106db578063a87430ba146106fb578063aa0b59881461078357600080fd5b8063805d64a0146105fd578063813ad0831461061d5780638456cb59146106335780638da5cb5b1461064857806395ccea671461066657600080fd5b8063520d5e25116101e857806369ef32d2116101ac57806369ef32d2146105365780636d69fcaf14610556578063715018a6146105765780637259e0f81461058b57806376319190146105ab57806377bad62e146105cb57600080fd5b8063520d5e25146104135780635c975abb1461044b5780636386c1c7146104765780636805d6ad146104e657806368c4ac261461050657600080fd5b8063338b5dea1161023a578063338b5dea1461035a5780633731a16f1461037c5780633f4ba83a14610391578063457972de146103a657806345f2d105146103c65780634d3820eb146103fe57600080fd5b8063088fdd201461028257806316345f18146102c25780631e6c598e146102e257806326232a2e146103175780632db25e051461032d57600080fd5b3661027d57005b600080fd5b34801561028e57600080fd5b506102af61029d366004612e4f565b600c6020526000908152604090205481565b6040519081526020015b60405180910390f35b3480156102ce57600080fd5b506102af6102dd366004612e4f565b61092d565b3480156102ee57600080fd5b506103026102fd366004612e6a565b610b15565b6040516102b999989796959493929190612ed3565b34801561032357600080fd5b506102af60095481565b34801561033957600080fd5b5061034d610348366004612e6a565b610bff565b6040516102b99190612f3c565b34801561036657600080fd5b5061037a610375366004612fdb565b610d85565b005b34801561038857600080fd5b506007546102af565b34801561039d57600080fd5b5061037a610f24565b3480156103b257600080fd5b5061037a6103c1366004612fdb565b610f36565b3480156103d257600080fd5b506102af6103e1366004613005565b600560209081526000928352604080842090915290825290205481565b34801561040a57600080fd5b5061037a610ffd565b34801561041f57600080fd5b5061043361042e366004612e6a565b611153565b6040516001600160a01b0390911681526020016102b9565b34801561045757600080fd5b50600154600160a01b900460ff165b60405190151581526020016102b9565b34801561048257600080fd5b50610496610491366004612e4f565b61117d565b6040516102b99190600060c0820190508251151582526020830151602083015260408301516040830152606083015160608301526080830151608083015260a0830151151560a083015292915050565b3480156104f257600080fd5b506102af610501366004613005565b611227565b34801561051257600080fd5b50610466610521366004612e4f565b600a6020526000908152604090205460ff1681565b34801561054257600080fd5b5061037a610551366004613005565b611254565b34801561056257600080fd5b5061037a610571366004612e4f565b61131a565b34801561058257600080fd5b5061037a611465565b34801561059757600080fd5b506104336105a6366004612e6a565b611477565b3480156105b757600080fd5b5061037a6105c6366004612e4f565b611487565b3480156105d757600080fd5b506105eb6105e6366004612e4f565b611625565b6040516102b996959493929190613038565b34801561060957600080fd5b50600e54610433906001600160a01b031681565b34801561062957600080fd5b506102af60085481565b34801561063f57600080fd5b5061037a6116f0565b34801561065457600080fd5b506001546001600160a01b0316610433565b34801561067257600080fd5b5061037a610681366004612fdb565b611700565b34801561069257600080fd5b506006546102af565b3480156106a757600080fd5b5061037a6106b6366004612fdb565b6117eb565b3480156106c757600080fd5b506104336106d6366004612e6a565b6119e8565b3480156106e757600080fd5b5061037a6106f6366004613126565b6119f8565b34801561070757600080fd5b50610752610716366004612e4f565b600260208190526000918252604090912080546001820154928201546003830154600484015460059094015460ff938416959492939192911686565b60408051961515875260208701959095529385019290925260608401526080830152151560a082015260c0016102b9565b34801561078f57600080fd5b5061037a61079e366004612e6a565b611f41565b3480156107af57600080fd5b5061037a6107be3660046131a7565b611fd6565b3480156107cf57600080fd5b5061037a6107de366004613228565b6121ab565b3480156107ef57600080fd5b506102af6101f481565b34801561080557600080fd5b5061037a610814366004612e4f565b612312565b34801561082557600080fd5b5061082e612364565b6040516102b99190613294565b34801561084757600080fd5b50610433610856366004612e4f565b600d602052600090815260409020546001600160a01b031681565b34801561087d57600080fd5b5061089161088c366004612e4f565b6123c6565b6040516102b991906132e1565b3480156108aa57600080fd5b5061037a6108b9366004612e6a565b612503565b3480156108ca57600080fd5b506108d3600881565b60405160ff90911681526020016102b9565b3480156108f157600080fd5b5061037a610900366004612e4f565b6126f8565b34801561091157600080fd5b506102af610920366004613354565b61276e565b61037a6127a4565b6001600160a01b038082166000908152600d60205260408120549091168015610aae576000819050600080826001600160a01b031663feaf968c6040518163ffffffff1660e01b815260040160a060405180830381865afa158015610996573d6000803e3d6000fd5b505050506040513d601f19601f820116820180604052508101906109ba91906133ae565b509350509250506000821380156109d15750600081115b15610aaa576000836001600160a01b031663313ce5676040518163ffffffff1660e01b8152600401602060405180830381865afa158015610a16573d6000803e3d6000fd5b505050506040513d601f19601f82011682018060405250810190610a3a91906133fe565b905060071960ff821601610a5357509095945050505050565b600860ff82161115610a8a57610a6a600882613431565b610a7590600a61352e565b610a7f908461353d565b979650505050505050565b610a95816008613431565b610aa090600a61352e565b610a7f908461355f565b5050505b6001600160a01b0383166000908152600c602052604090205480610b0e5760405162461bcd60e51b81526020600482015260126024820152714e6f20707269636520617661696c61626c6560701b60448201526064015b60405180910390fd5b9392505050565b600360208190526000918252604090912080546001820154600283015493830154600484015460058501546006860154600787015460088801805497996001600160a01b039788169990881698979096169694959394929360ff90921692610b7c90613576565b80601f0160208091040260200160405190810160405280929190818152602001828054610ba890613576565b8015610bf55780601f10610bca57610100808354040283529160200191610bf5565b820191906000526020600020905b815481529060010190602001808311610bd857829003601f168201915b5050505050905089565b610c6b6040518061012001604052806000815260200160006001600160a01b0316815260200160006001600160a01b0316815260200160006001600160a01b03168152602001600081526020016000815260200160008152602001600015158152602001606081525090565b6000828152600360208181526040928390208351610120810185528154815260018201546001600160a01b039081169382019390935260028201548316948101949094529182015416606083015260048101546080830152600581015460a0830152600681015460c0830152600781015460ff16151560e083015260088101805461010084019190610cfc90613576565b80601f0160208091040260200160405190810160405280929190818152602001828054610d2890613576565b8015610d755780601f10610d4a57610100808354040283529160200191610d75565b820191906000526020600020905b815481529060010190602001808311610d5857829003601f168201915b5050505050815250509050919050565b610d8d6128c8565b3360009081526002602052604090205460ff16610dbc5760405162461bcd60e51b8152600401610b05906135b0565b6001600160a01b0382166000908152600a6020526040902054829060ff16610df65760405162461bcd60e51b8152600401610b05906135dd565b60008211610e165760405162461bcd60e51b8152600401610b059061360a565b6001600160a01b038316610e6c5760405162461bcd60e51b815260206004820152601f60248201527f557365206465706f73697445544820666f7220455448206465706f73697473006044820152606401610b05565b610e816001600160a01b038416333085612921565b3360009081526005602090815260408083206001600160a01b038716845290915281208054849290610eb490849061364f565b9091555050336000818152600260205260409081902042600490910155516001600160a01b03851691907f5548c837ab068cf56a2c2479df0882a4922fd203edb7517321831d95078c5f6290610f0d9086815260200190565b60405180910390a350610f206001600055565b5050565b610f2c612992565b610f346129ec565b565b600e546001600160a01b0316331480610f5957506001546001600160a01b031633145b610f9b5760405162461bcd60e51b81526020600482015260136024820152722737ba1037b930b1b6329037b91037bbb732b960691b6044820152606401610b05565b6001600160a01b0382166000818152600c602052604090819020839055517fb556fac599c3c70efb9ab1fa725ecace6c81cc48d1455f886607def065f3e0c090610ff19084904290918252602082015260400190565b60405180910390a25050565b3360009081526002602052604090205460ff161561105d5760405162461bcd60e51b815260206004820152601760248201527f5573657220616c726561647920726567697374657265640000000000000000006044820152606401610b05565b6040805160c08101825260018082526000602080840182815284860183815260608601848152426080880181815260a089018881523380895260028089528c8a209b518c5490151560ff19918216178d5597518c8c01559551958b0195909555925160038a015551600489015590516005909701805497151597909316969096179091556006805494850181559092527ff652222313e28459528d920b65115c16c04f3efc82aaedc97be59f3f377c0d3f90920180546001600160a01b0319168217905592519182527fe29d35093005f4d575e1003753426b57a7f64378ba73332eef9c6ccc2b8decd6910160405180910390a2565b6007818154811061116357600080fd5b6000918252602090912001546001600160a01b0316905081565b6111ba6040518060c00160405280600015158152602001600081526020016000815260200160008152602001600081526020016000151581525090565b506001600160a01b0316600090815260026020818152604092839020835160c081018552815460ff9081161515825260018301549382019390935292810154938301939093526003830154606083015260048301546080830152600590920154909116151560a082015290565b6001600160a01b038083166000908152600560209081526040808320938516835292905220545b92915050565b61125c612992565b6001600160a01b0382166112c35760405162461bcd60e51b815260206004820152602860248201527f746f6b656e206d6179206265207a65726f20666f72204554482072657072657360448201526732b73a30ba34b7b760c11b6064820152608401610b05565b6001600160a01b038281166000818152600d602052604080822080546001600160a01b0319169486169485179055517fb9b75140a682094a10720170347bc8e03bfd71f1bb59d103cd8dc0782c5256839190a35050565b611322612992565b6001600160a01b0381166113705760405162461bcd60e51b8152602060048201526015602482015274496e76616c696420746f6b656e206164647265737360581b6044820152606401610b05565b6001600160a01b0381166000908152600a602052604090205460ff16156113d95760405162461bcd60e51b815260206004820152601760248201527f546f6b656e20616c726561647920737570706f727465640000000000000000006044820152606401610b05565b6001600160a01b0381166000818152600a6020526040808220805460ff19166001908117909155600b8054918201815583527f0175b7a638427703f0dbe7bb9bbf987a2551717b34e79f33b5b1008d1fa01db90180546001600160a01b03191684179055517f784c8f4dbf0ffedd6e72c76501c545a70f8b203b30a26ce542bf92ba87c248a49190a250565b61146d612992565b610f346000612a41565b6006818154811061116357600080fd5b61148f612992565b6001600160a01b0381166000908152600a602052604090205460ff166114c75760405162461bcd60e51b8152600401610b05906135dd565b6001600160a01b0381166000908152600a60205260408120805460ff191690555b600b548110156115ed57816001600160a01b0316600b828154811061150f5761150f613662565b6000918252602090912001546001600160a01b0316036115db57600b805461153990600190613678565b8154811061154957611549613662565b600091825260209091200154600b80546001600160a01b03909216918390811061157557611575613662565b9060005260206000200160006101000a8154816001600160a01b0302191690836001600160a01b03160217905550600b8054806115b4576115b461368b565b600082815260209020810160001990810180546001600160a01b03191690550190556115ed565b806115e5816136a1565b9150506114e8565b506040516001600160a01b038216907f4c910b69fe65a61f7531b9c5042b2329ca7179c77290aa7e2eb3afa3c8511fd390600090a250565b600460205260009081526040902080546001820180546001600160a01b03909216929161165190613576565b80601f016020809104026020016040519081016040528092919081815260200182805461167d90613576565b80156116ca5780601f1061169f576101008083540402835291602001916116ca565b820191906000526020600020905b8154815290600101906020018083116116ad57829003601f168201915b505050506002830154600384015460048501546005909501549394919390925060ff1686565b6116f8612992565b610f34612a93565b611708612992565b6001600160a01b0382166117c557600061172a6001546001600160a01b031690565b6001600160a01b03168260405160006040518083038185875af1925050503d8060008114611774576040519150601f19603f3d011682016040523d82523d6000602084013e611779565b606091505b50509050806117c05760405162461bcd60e51b8152602060048201526013602482015272115512081d1c985b9cd9995c8819985a5b1959606a1b6044820152606401610b05565b505050565b610f206117da6001546001600160a01b031690565b6001600160a01b0384169083612ad6565b6117f36128c8565b3360009081526002602052604090205460ff166118225760405162461bcd60e51b8152600401610b05906135b0565b6001600160a01b0382166000908152600a6020526040902054829060ff1661185c5760405162461bcd60e51b8152600401610b05906135dd565b6000821161187c5760405162461bcd60e51b8152600401610b05906136ba565b6001600160a01b0383166118de5760405162461bcd60e51b815260206004820152602360248201527f55736520776974686472617745544820666f7220455448207769746864726177604482015262616c7360e81b6064820152608401610b05565b3360009081526005602090815260408083206001600160a01b03871684529091529020548211156119485760405162461bcd60e51b8152602060048201526014602482015273496e73756666696369656e742062616c616e636560601b6044820152606401610b05565b3360009081526005602090815260408083206001600160a01b03871684529091528120805484929061197b908490613678565b9091555050336000818152600260205260409020426004909101556119ab906001600160a01b0385169084612ad6565b6040518281526001600160a01b0384169033907f2717ead6b9200dd235aad468c9809ea400fe33ac69b5bfaa6d3e90fc922b639890602001610f0d565b600b818154811061116357600080fd5b611a006128c8565b3360009081526004602052604090206005015460ff16611a555760405162461bcd60e51b815260206004820152601060248201526f4167656e74206e6f742061637469766560801b6044820152606401610b05565b6001600160a01b0385166000908152600a6020526040902054859060ff16611a8f5760405162461bcd60e51b8152600401610b05906135dd565b6001600160a01b0385166000908152600a6020526040902054859060ff16611ac95760405162461bcd60e51b8152600401610b05906135dd565b611ad1612b06565b6001600160a01b03881660009081526002602052604090206005015460ff16611b2e5760405162461bcd60e51b815260206004820152600f60248201526e55736572206e6f742061637469766560881b6044820152606401610b05565b6001600160a01b038089166000908152600560209081526040808320938b1683529290522054851115611ba35760405162461bcd60e51b815260206004820152601960248201527f496e73756666696369656e7420757365722062616c616e6365000000000000006044820152606401610b05565b60008511611bf35760405162461bcd60e51b815260206004820152601d60248201527f416d6f756e74206d7573742062652067726561746572207468616e20300000006044820152606401610b05565b600061271060095487611c06919061355f565b611c10919061353d565b90506000611c1e8288613678565b90506000611c2d8a8a84612b53565b90506064611c3c88605f61355f565b611c46919061353d565b811015611c895760405162461bcd60e51b81526020600482015260116024820152700a6d8d2e0e0c2ceca40e8dede40d0d2ced607b1b6044820152606401610b05565b6001600160a01b03808c166000908152600560209081526040808320938e16835292905290812080548a9290611cc0908490613678565b90915550506001600160a01b03808c166000908152600560209081526040808320938d1683529290529081208054839290611cfc90849061364f565b9250508190555060405180610120016040528060085481526020018c6001600160a01b031681526020018b6001600160a01b031681526020018a6001600160a01b03168152602001898152602001828152602001428152602001600115158152602001878152506003600060085481526020019081526020016000206000820151816000015560208201518160010160006101000a8154816001600160a01b0302191690836001600160a01b0316021790555060408201518160020160006101000a8154816001600160a01b0302191690836001600160a01b0316021790555060608201518160030160006101000a8154816001600160a01b0302191690836001600160a01b031602179055506080820151816004015560a0820151816005015560c0820151816006015560e08201518160070160006101000a81548160ff021916908315150217905550610100820151816008019081611e5d9190613748565b50503360009081526004602052604081206003018054925090611e7f836136a1565b9190505550868110611eaf57336000908152600460208190526040822001805491611ea9836136a1565b91905055505b611eb833612b74565b600854604080516001600160a01b038d811682528c811660208301529181018b9052606081018490523392918e1691907f86008ff4a4ac9087a10bb57c7430f8cf58c83b3414efce2bbab7247b0eb885789060800160405180910390a460088054906000611f25836136a1565b91905055505050505050611f396001600055565b505050505050565b611f49612992565b6101f4811115611f9b5760405162461bcd60e51b815260206004820152601960248201527f4665652063616e6e6f7420657863656564206d6178696d756d000000000000006044820152606401610b05565b60098190556040518181527f8c4d35e54a3f2ef1134138fd8ea3daee6a3c89e10d2665996babdf70261e2c769060200160405180910390a150565b3360009081526004602052604090206005015460ff16156120395760405162461bcd60e51b815260206004820152601860248201527f4167656e7420616c7265616479207265676973746572656400000000000000006044820152606401610b05565b60008151116120815760405162461bcd60e51b81526020600482015260146024820152734e616d652063616e6e6f7420626520656d70747960601b6044820152606401610b05565b6040805160c0810182523380825260208083018581526113888486015260006060850181905260808501819052600160a086018190529381526004909252939020825181546001600160a01b0319166001600160a01b039091161781559251919291908201906120f19082613748565b506040828101516002830155606083015160038301556080830151600483015560a0909201516005909101805460ff1916911515919091179055600780546001810182556000919091527fa66cc928b5edb82af9bd49922954155ab7b0942694bea4ce44661d9a8736c688018054336001600160a01b0319909116811790915590517f8ccbf1f16ce1c3abc2ca06bfcfe78200515b3231872aa1ef4bffc110e942d5b4906121a0908490613808565b60405180910390a250565b600e546001600160a01b03163314806121ce57506001546001600160a01b031633145b6122105760405162461bcd60e51b81526020600482015260136024820152722737ba1037b930b1b6329037b91037bbb732b960691b6044820152606401610b05565b8281146122515760405162461bcd60e51b815260206004820152600f60248201526e098cadccee8d040dad2e6dac2e8c6d608b1b6044820152606401610b05565b60005b838110156122cc5782828281811061226e5761226e613662565b90506020020135600c600087878581811061228b5761228b613662565b90506020020160208101906122a09190612e4f565b6001600160a01b03168152602081019190915260400160002055806122c4816136a1565b915050612254565b507f6277879ea845396463d8836b57b250340de0bb02892d4cc55f236759d3b3f60d848484844260405161230495949392919061381b565b60405180910390a150505050565b61231a612992565b600e80546001600160a01b0319166001600160a01b0383169081179091556040517feefad9b2911e6080c046437cd09113b0b39c7c55702ae3038d949cce9fa30b9090600090a250565b6060600b8054806020026020016040519081016040528092919081815260200182805480156123bc57602002820191906000526020600020905b81546001600160a01b0316815260019091019060200180831161239e575b5050505050905090565b61240a6040518060c0016040528060006001600160a01b03168152602001606081526020016000815260200160008152602001600081526020016000151581525090565b6001600160a01b03808316600090815260046020908152604091829020825160c08101909352805490931682526001830180549293929184019161244d90613576565b80601f016020809104026020016040519081016040528092919081815260200182805461247990613576565b80156124c65780601f1061249b576101008083540402835291602001916124c6565b820191906000526020600020905b8154815290600101906020018083116124a957829003601f168201915b505050918352505060028201546020820152600382015460408201526004820154606082015260059091015460ff16151560809091015292915050565b61250b6128c8565b3360009081526002602052604090205460ff1661253a5760405162461bcd60e51b8152600401610b05906135b0565b6000811161255a5760405162461bcd60e51b8152600401610b05906136ba565b3360009081526005602090815260408083208380529091529020548111156125bb5760405162461bcd60e51b8152602060048201526014602482015273496e73756666696369656e742062616c616e636560601b6044820152606401610b05565b336000908152600560209081526040808320838052909152812080548392906125e5908490613678565b9091555050336000908152600260208190526040822001805483929061260c90849061364f565b909155505033600081815260026020526040808220426004909101555190919083908381818185875af1925050503d8060008114612666576040519150601f19603f3d011682016040523d82523d6000602084013e61266b565b606091505b50509050806126b25760405162461bcd60e51b8152602060048201526013602482015272115512081d1c985b9cd9995c8819985a5b1959606a1b6044820152606401610b05565b60405182815260009033907f2717ead6b9200dd235aad468c9809ea400fe33ac69b5bfaa6d3e90fc922b63989060200160405180910390a3506126f56001600055565b50565b612700612992565b6001600160a01b0381166127655760405162461bcd60e51b815260206004820152602660248201527f4f776e61626c653a206e6577206f776e657220697320746865207a65726f206160448201526564647265737360d01b6064820152608401610b05565b6126f581612a41565b60008061277a8561092d565b905061278783600a61352e565b612791828661355f565b61279b919061353d565b95945050505050565b6127ac6128c8565b3360009081526002602052604090205460ff166127db5760405162461bcd60e51b8152600401610b05906135b0565b600034116127fb5760405162461bcd60e51b8152600401610b059061360a565b336000908152600260205260408120600301805434929061281d90849061364f565b9091555050336000908152600260205260408120600101805434929061284490849061364f565b909155505033600090815260026020908152604080832042600490910155600582528083208380529091528120805434929061288190849061364f565b909155505060405134815260009033907f5548c837ab068cf56a2c2479df0882a4922fd203edb7517321831d95078c5f629060200160405180910390a3610f346001600055565b60026000540361291a5760405162461bcd60e51b815260206004820152601f60248201527f5265656e7472616e637947756172643a207265656e7472616e742063616c6c006044820152606401610b05565b6002600055565b6040516001600160a01b038085166024830152831660448201526064810182905261298c9085906323b872dd60e01b906084015b60408051601f198184030181529190526020810180516001600160e01b03166001600160e01b031990931692909217909152612bfb565b50505050565b6001546001600160a01b03163314610f345760405162461bcd60e51b815260206004820181905260248201527f4f776e61626c653a2063616c6c6572206973206e6f7420746865206f776e65726044820152606401610b05565b6129f4612cd0565b6001805460ff60a01b191690557f5db9ee0a495bf2e6ff9c91a7834c1ba4fdd244a5e8aa4e537bd38aeae4b073aa335b6040516001600160a01b03909116815260200160405180910390a1565b600180546001600160a01b038381166001600160a01b0319831681179093556040519116919082907f8be0079c531659141344cd1fd0a4f28419497f9722a3daafe3b4186f6b6457e090600090a35050565b612a9b612b06565b6001805460ff60a01b1916600160a01b1790557f62e78cea01bee320cd4e420270b5ea74000d11b0c9f74754ebdbfc544b05a258612a243390565b6040516001600160a01b0383166024820152604481018290526117c090849063a9059cbb60e01b90606401612955565b600154600160a01b900460ff1615610f345760405162461bcd60e51b815260206004820152601060248201526f14185d5cd8589b194e881c185d5cd95960821b6044820152606401610b05565b60006064612b6283606261355f565b612b6c919061353d565b949350505050565b6001600160a01b0381166000908152600460205260409020600381015415612bbc5760038101546004820154612bac9061271061355f565b612bb6919061353d565b60028201555b816001600160a01b03167fbf46848bbc607213edd6676f78a773dec7f3a5c8465524fb1cea9fa2ad5606d98260020154604051610ff191815260200190565b6000612c50826040518060400160405280602081526020017f5361666545524332303a206c6f772d6c6576656c2063616c6c206661696c6564815250856001600160a01b0316612d209092919063ffffffff16565b9050805160001480612c71575080806020019051810190612c7191906138a0565b6117c05760405162461bcd60e51b815260206004820152602a60248201527f5361666545524332303a204552433230206f7065726174696f6e20646964206e6044820152691bdd081cdd58d8d9595960b21b6064820152608401610b05565b600154600160a01b900460ff16610f345760405162461bcd60e51b815260206004820152601460248201527314185d5cd8589b194e881b9bdd081c185d5cd95960621b6044820152606401610b05565b6060612b6c848460008585600080866001600160a01b03168587604051612d4791906138c2565b60006040518083038185875af1925050503d8060008114612d84576040519150601f19603f3d011682016040523d82523d6000602084013e612d89565b606091505b5091509150610a7f8783838760608315612e04578251600003612dfd576001600160a01b0385163b612dfd5760405162461bcd60e51b815260206004820152601d60248201527f416464726573733a2063616c6c20746f206e6f6e2d636f6e74726163740000006044820152606401610b05565b5081612b6c565b612b6c8383815115612e195781518083602001fd5b8060405162461bcd60e51b8152600401610b059190613808565b80356001600160a01b0381168114612e4a57600080fd5b919050565b600060208284031215612e6157600080fd5b610b0e82612e33565b600060208284031215612e7c57600080fd5b5035919050565b60005b83811015612e9e578181015183820152602001612e86565b50506000910152565b60008151808452612ebf816020860160208601612e83565b601f01601f19169290920160200192915050565b8981526001600160a01b0389811660208301528881166040830152871660608201526080810186905260a0810185905260c0810184905282151560e08201526101206101008201819052600090612f2c83820185612ea7565b9c9b505050505050505050505050565b602081528151602082015260006020830151612f6360408401826001600160a01b03169052565b5060408301516001600160a01b03811660608401525060608301516001600160a01b038116608084015250608083015160a083015260a083015160c083015260c083015160e083015260e0830151610100612fc18185018315159052565b840151610120848101529050612b6c610140840182612ea7565b60008060408385031215612fee57600080fd5b612ff783612e33565b946020939093013593505050565b6000806040838503121561301857600080fd5b61302183612e33565b915061302f60208401612e33565b90509250929050565b6001600160a01b038716815260c06020820181905260009061305c90830188612ea7565b905085604083015284606083015283608083015282151560a0830152979650505050505050565b634e487b7160e01b600052604160045260246000fd5b600082601f8301126130aa57600080fd5b813567ffffffffffffffff808211156130c5576130c5613083565b604051601f8301601f19908116603f011681019082821181831017156130ed576130ed613083565b8160405283815286602085880101111561310657600080fd5b836020870160208301376000602085830101528094505050505092915050565b60008060008060008060c0878903121561313f57600080fd5b61314887612e33565b955061315660208801612e33565b945061316460408801612e33565b9350606087013592506080870135915060a087013567ffffffffffffffff81111561318e57600080fd5b61319a89828a01613099565b9150509295509295509295565b6000602082840312156131b957600080fd5b813567ffffffffffffffff8111156131d057600080fd5b612b6c84828501613099565b60008083601f8401126131ee57600080fd5b50813567ffffffffffffffff81111561320657600080fd5b6020830191508360208260051b850101111561322157600080fd5b9250929050565b6000806000806040858703121561323e57600080fd5b843567ffffffffffffffff8082111561325657600080fd5b613262888389016131dc565b9096509450602087013591508082111561327b57600080fd5b50613288878288016131dc565b95989497509550505050565b6020808252825182820181905260009190848201906040850190845b818110156132d55783516001600160a01b0316835292840192918401916001016132b0565b50909695505050505050565b602080825282516001600160a01b03168282015282015160c0604083015260009061330f60e0840182612ea7565b90506040840151606084015260608401516080840152608084015160a084015260a0840151151560c08401528091505092915050565b60ff811681146126f557600080fd5b60008060006060848603121561336957600080fd5b61337284612e33565b925060208401359150604084013561338981613345565b809150509250925092565b805169ffffffffffffffffffff81168114612e4a57600080fd5b600080600080600060a086880312156133c657600080fd5b6133cf86613394565b94506020860151935060408601519250606086015191506133f260808701613394565b90509295509295909350565b60006020828403121561341057600080fd5b8151610b0e81613345565b634e487b7160e01b600052601160045260246000fd5b60ff828116828216039081111561124e5761124e61341b565b600181815b8085111561348557816000190482111561346b5761346b61341b565b8085161561347857918102915b93841c939080029061344f565b509250929050565b60008261349c5750600161124e565b816134a95750600061124e565b81600181146134bf57600281146134c9576134e5565b600191505061124e565b60ff8411156134da576134da61341b565b50506001821b61124e565b5060208310610133831016604e8410600b8410161715613508575081810a61124e565b613512838361344a565b80600019048211156135265761352661341b565b029392505050565b6000610b0e60ff84168361348d565b60008261355a57634e487b7160e01b600052601260045260246000fd5b500490565b808202811582820484141761124e5761124e61341b565b600181811c9082168061358a57607f821691505b6020821081036135aa57634e487b7160e01b600052602260045260246000fd5b50919050565b602080825260139082015272155cd95c881b9bdd081c9959da5cdd195c9959606a1b604082015260600190565b602080825260139082015272151bdad95b881b9bdd081cdd5c1c1bdc9d1959606a1b604082015260600190565b60208082526025908201527f4465706f73697420616d6f756e74206d75737420626520677265617465722074604082015264068616e20360dc1b606082015260800190565b8082018082111561124e5761124e61341b565b634e487b7160e01b600052603260045260246000fd5b8181038181111561124e5761124e61341b565b634e487b7160e01b600052603160045260246000fd5b6000600182016136b3576136b361341b565b5060010190565b60208082526028908201527f5769746864726177616c20616d6f756e74206d75737420626520677265617465604082015267072207468616e20360c41b606082015260800190565b601f8211156117c057600081815260208120601f850160051c810160208610156137295750805b601f850160051c820191505b81811015611f3957828155600101613735565b815167ffffffffffffffff81111561376257613762613083565b613776816137708454613576565b84613702565b602080601f8311600181146137ab57600084156137935750858301515b600019600386901b1c1916600185901b178555611f39565b600085815260208120601f198616915b828110156137da578886015182559484019460019091019084016137bb565b50858210156137f85787850151600019600388901b60f8161c191681555b5050505050600190811b01905550565b602081526000610b0e6020830184612ea7565b6060808252810185905260008660808301825b8881101561385c576001600160a01b0361384784612e33565b1682526020928301929091019060010161382e565b5083810360208501528581526001600160fb1b0386111561387c57600080fd5b8560051b915081876020830137604093909301939093525001602001949350505050565b6000602082840312156138b257600080fd5b81518015158114610b0e57600080fd5b600082516138d4818460208701612e83565b919091019291505056fea264697066735822122015892a7f05e7d98780701e9cb8cb0e08b4a3f5cca03789e7fceb1b49fc63f92464736f6c63430008140033",
  "linkReferences": {},
  "deployedLinkReferences": {}
}